:020000040800F2
:1000000000280020FD0F00088D0F0008930F000846
:10001000990F00089F0F0008A50F000800000000BE
:10002000000000000000000000000000AB0F00080E
:10003000B70F000800000000C30F0008CF0F000832
:10004000451000084510000845100008451000083C
:10005000451000084510000845100008451000082C
:10006000451000084510000845100008451000081C
:10007000451000084510000845100008451000080C
:1000800045100008451000084510000845100008FC
:1000900045100008451000084510000845100008EC
:1000A00045100008451000084510000845100008DC
:1000B000DD0F000845100008000000004510000892
:1000C0004510000800000000000000004510000876
:1000D0000000000045100008451000080000000066
:1000E00045100008451000084510000800000000F9
:1000F0000000000000000000000000000000000000
:0C01000000000000000000005FF808F1A3
:10010C0010B5054C237833B9044B13B10448AFF345
:10011C0000800123237010BD44000020000000006B
:10012C009C26000808B5034B1BB103490348AFF3E9
:10013C00008008BD00000000480000209C2600083C
:10014C0080B483B000AF7860094A7B6852F82330E2
:10015C00012B06D1064A7B68002142F823100123AB
:10016C0000E0002318460C37BD4680BC704700BF2A
:10017C006000002080B483B000AF7860044A7B68D4
:10018C00012142F8231000BF0C37BD4680BC7047DC
:10019C006000002080B582B000AF78607B68022BD5
:1001AC0017D07B68022B1BDC7B68002B03D07B6891
:1001BC00012B07D014E04FF400510C4801F028FA41
:1001CC0003460EE04FF48041084801F021FA034643
:1001DC0007E04FF40041054801F01AFA034600E02D
:1001EC00012318460837BD4680BD00BF00100140F2
:1001FC0080B582B000AF00237B605DE0324A7B6843
:10020C0052F8232031497B6841F82320304A7B681F
:10021C0052F823202C497B6841F823207868FFF79B
:10022C00B9FF034619462A4A7B6842F82310264A2E
:10023C007B6852F8232025497B6851F823309A4279
:10024C0037D1214A7B6852F8232021497B6851F829
:10025C0023309A422DD11E4A7B6852F823201D4927
:10026C007B6851F823309A4215D0194A7B6852F8B2
:10027C00232018497B6841F82320164A7B6852F8E2
:10028C002330002B15D1144B4FF496721A607868FA
:10029C00FFF770FF0DE0104B1B68013B0E4A13601B
:1002AC000D4B1B68002B04D10A4A7B68012142F8D4
:1002BC0023107B6801337B607B68022B9EDD00BFC3
:1002CC0000BF0837BD4680BD0C0000200000002098
:1002DC0018000020240000203000002080B500AF62
:1002EC00A74B1B68132B00F2488101A252F823F094
:1002FC004D030008870500088705000887050008DE
:10030C008705000887050008870500088705000891
:10031C00870500088705000863030008C50300086B
:10032C00F7030008290400085B0400088D0400088A
:10033C00BF040008F1040008230500085505000857
:10034C00002000F051FA8E4B13221A600021642019
:10035C0000F076FD12E1002000F046FA894B1B6894
:10036C00002B13D1884B1B68012B06D1844B0A221E
:10037C001A600021642000F063FD00F0C5FB1E2014
:10038C0000F0D2FB1E2000F0EFFBF7E07E4B1B6869
:10039C00012B08D100F008FC794B13221A600021C4
:1003AC00642000F04DFD00F0AFFB1E2000F0BCFB04
:1003BC001E2000F0D9FBE1E0012000F015FA724B91
:1003CC001B68012B08D100F0EFFB6D4B0A221A6061
:1003DC000021642000F034FD00F096FB1F2000F09B
:1003EC00A3FB1F2000F0C0FBC8E0022000F0FCF9CA
:1003FC00654B1B68012B08D100F0D6FB604B0B2220
:10040C001A600021642000F01BFD00F07DFB202011
:10041C0000F08AFB202000F0A7FBAFE0032000F0E7
:10042C00E3F9594B1B68012B08D100F0BDFB544B71
:10043C000C221A600021642000F002FD00F064FB25
:10044C00212000F071FB212000F08EFB96E00420AF
:10045C0000F0CAF94C4B1B68012B08D100F0A4FB2F
:10046C00474B0D221A600021642000F0E9FC00F0DB
:10047C004BFB222000F058FB222000F075FB7DE0A6
:10048C00052000F0B1F9404B1B68012B08D100F09E
:10049C008BFB3B4B0E221A600021642000F0D0FC39
:1004AC0000F032FB232000F03FFB232000F05CFB2C
:1004BC0064E0062000F098F9334B1B68012B08D13F
:1004CC0000F072FB2E4B0F221A600021642000F00A
:1004DC00B7FC00F019FB242000F026FB242000F0D0
:1004EC0043FB4BE0072000F07FF9274B1B68012BE7
:1004FC0008D100F059FB224B10221A600021642015
:10050C0000F09EFC00F000FB252000F00DFB2520E8
:10051C0000F02AFB32E0082000F066F91A4B1B6849
:10052C00012B08D100F040FB154B11221A60002161
:10053C00642000F085FC00F0E7FA262000F0F4FAC5
:10054C00262000F011FB19E0092000F04DF90E4BAC
:10055C001B68012B08D100F027FB094B12221A60F3
:10056C000021642000F06CFC00F0CEFA272000F093
:10057C00DBFA272000F0F8FA00E000BF00BF80BDD6
:10058C006C00002034000020B800002080B500AFC3
:10059C00924B1B681E3B092B00F21C8101A252F8E6
:1005AC0023F000BFD90500080D060008410600081D
:1005BC0075060008A9060008DD06000811070008EA
:1005CC004507000879070008AD070008002000F077
:1005DC000BF9834B0A221A60824B1B68012B06D144
:1005EC007E4B0A221A600021642000F029FC00F0E6
:1005FC008BFA1E2000F098FA1E2000F0B5FAEAE003
:10060C00012000F0F1F8764B0A221A60754B1B683A
:10061C00012B06D1714B0B221A600021642000F0D3
:10062C000FFC00F071FA1F2000F07EFA1F2000F082
:10063C009BFAD0E0022000F0D7F8694B0A221A602E
:10064C00684B1B68012B06D1644B0C221A600021ED
:10065C00642000F0F5FB00F057FA202000F064FA5B
:10066C00202000F081FAB6E0032000F0BDF85C4BCE
:10067C000A221A605B4B1B68012B06D1574B0D22CB
:10068C001A600021642000F0DBFB00F03DFA212011
:10069C0000F04AFA212000F067FA9CE0042000F0F8
:1006AC00A3F84F4B0A221A604E4B1B68012B06D144
:1006BC004A4B0E221A600021642000F0C1FB00F0AE
:1006CC0023FA222000F030FA222000F04DFA82E0CA
:1006DC00052000F089F8424B0A221A60414B1B6836
:1006EC00012B06D13D4B0F221A600021642000F033
:1006FC00A7FB00F009FA232000F016FA232000F0E3
:10070C0033FA68E0062000F06FF8354B0A221A60C5
:10071C00344B1B68012B06D1304B10221A60002180
:10072C00642000F08DFB00F0EFF9242000F0FCF9C0
:10073C00242000F019FA4EE0072000F055F8284B61
:10074C000A221A60274B1B68012B06D1234B11225E
:10075C001A600021642000F073FB00F0D5F925200D
:10076C0000F0E2F9252000F0FFF934E0082000F059
:10077C003BF81B4B0A221A601A4B1B68012B06D143
:10078C00164B12221A600021642000F059FB00F075
:10079C00BBF9262000F0C8F9262000F0E5F91AE094
:1007AC00092000F021F80E4B0A221A600D4B1B6831
:1007BC00012B06D1094B13221A600021642000F092
:1007CC003FFB00F0A1F9272000F0AEF9272000F044
:1007DC00CBF900E000BF00BF80BD00BF6C00002063
:1007EC0034000020B800002080B582B000AF7860E3
:1007FC007B68092B00F2808101A252F823F000BF24
:10080C00350800087D080008C50800080D09000817
:10081C00550900089D090008E50900082D0A000883
:10082C00750A0008BD0A000800220121B54800F035
:10083C0006FF00220221B34800F001FF0022042130
:10084C00B04800F0FCFE00220821AE4800F0F7FE94
:10085C0000221021AB4800F0F2FE00222021A94812
:10086C0000F0EDFE01224021A64800F0E8FE44E134
:10087C0001220121A34800F0E2FE00220221A1483E
:10088C0000F0DDFE002204219E4800F0D8FE01227B
:10089C0008219C4800F0D3FE01221021994800F059
:1008AC00CEFE01222021974800F0C9FE01224021F2
:1008BC00944800F0C4FE20E100220121914800F090
:1008CC00BEFE002202218F4800F0B9FE0122042155
:1008DC008C4800F0B4FE002208218A4800F0AFFEDC
:1008EC0000221021874800F0AAFE01222021854811
:1008FC0000F0A5FE00224021824800F0A0FEFCE0A2
:10090C00002201217F4800F09AFE002202217D483E
:10091C0000F095FE002204217A4800F090FE00229F
:10092C000821784800F08BFE01221021754800F058
:10093C0086FE01222021734800F081FE0022402116
:10094C00704800F07CFED8E0012201216D4800F0D7
:10095C0076FE002202216B4800F071FE0022042179
:10096C00684800F06CFE01220821664800F067FE22
:10097C0001221021634800F062FE00222021614810
:10098C0000F05DFE002240215E4800F058FEB4E00D
:10099C00002201215B4800F052FE0122022159483D
:1009AC0000F04DFE00220421564800F048FE0022C3
:1009BC000821544800F043FE01221021514800F058
:1009CC003EFE002220214F4800F039FE002240213B
:1009DC004C4800F034FE90E000220121494800F020
:1009EC002EFE01220221474800F029FE002204219C
:1009FC00444800F024FE00220821424800F01FFE6B
:100A0C00002210213F4800F01AFE002220213D4810
:100A1C0000F015FE002240213A4800F010FE6CE078
:100A2C0000220121374800F00AFE0022022135483D
:100A3C0000F005FE00220421324800F000FE0122E5
:100A4C000821304800F0FBFD012210212D4800F058
:100A5C00F6FD012220212B4800F0F1FD012240215E
:100A6C00284800F0ECFD48E000220121254800F068
:100A7C00E6FD00220221234800F0E1FD00220421C2
:100A8C00204800F0DCFD002208211E4800F0D7FDB4
:100A9C00002210211B4800F0D2FD00222021194811
:100AAC0000F0CDFD00224021164800F0C8FD24E0E6
:100ABC0000220121134800F0C2FD0022022111483E
:100ACC0000F0BDFD002204210E4800F0B8FD00220C
:100ADC0008210C4800F0B3FD01221021094800F058
:100AEC00AEFD00222021074800F0A9FD0022402184
:100AFC00044800F0A4FD00E000BF00BF0837BD466D
:100B0C0080BD00BF000C014080B500AF0020FFF796
:100B1C0017FB0346012B02D1024B1E221A6000BFA9
:100B2C0080BD00BF6C00002080B582B000AF786043
:100B3C000120FFF705FB0346012B0ED17B68013327
:100B4C00084A1360074B1B68272B02DD054B1E223E
:100B5C001A600021642000F073F900BF0837BD460D
:100B6C0080BD00BF6C00002080B582B000AF786003
:100B7C000220FFF7E5FA0346012B0ED17B68013BFF
:100B8C00084A1360074B1B681D2B02DC054B272200
:100B9C001A600021642000F053F900BF0837BD46ED
:100BAC0080BD00BF6C00002080B400AF084B1B68F8
:100BBC000A2B08DC064B1B68002B04DD044B1B685E
:100BCC00013B034A136000BFBD4680BC704700BFA9
:100BDC003400002080B500AF00F030FA00F028F8A7
:100BEC0000F0AEF800F060F80D4801F091F90D4BF3
:100BFC0000221A600121642000F022F90A4B5B6884
:100C0C00012B07D10121642000F01AF9202107489B
:100C1C0000F02DFDFFF762FBFFF7B8FCEEE700BF1D
:100C2C00000100206C000020B800002000080140EA
:100C3C0080B590B000AF07F11803282200211846A8
:100C4C0001F01EFD3B1D00221A605A609A60DA60AA
:100C5C001A610223BB610123BB621023FB620023D8
:100C6C007B6307F11803184600F01AFD0346002BAE
:100C7C0001D000F0DFF80F237B600023BB60002362
:100C8C00FB6000233B6100237B613B1D0021184668
:100C9C0000F086FF0346002B01D000F0CBF800BF1C
:100CAC004037BD4680BD000080B586B000AF07F16F
:100CBC00080300221A605A609A60DA603B460022F0
:100CCC001A605A601D4B4FF080421A601B4B41F664
:100CDC003F725A60194B00229A60184B0922DA6055
:100CEC00164B00221A61154B00229A61134801F031
:100CFC00BFF80346002B01D000F09CF84FF4805352
:100D0C00BB6007F1080319460C4801F055FA03467D
:100D1C00002B01D000F08EF800233B6000237B6099
:100D2C003B461946054801F01DFC0346002B01D03B
:100D3C0000F080F800BF1837BD4680BD00010020D0
:100D4C0080B588B000AF07F1100300221A605A601A
:100D5C009A60DA602D4B9B692C4A43F01003936127
:100D6C002A4B9B6903F01003FB60FB68274B9B69C4
:100D7C00264A43F004039361244B9B6903F004035C
:100D8C00BB60BB68214B9B69204A43F0080393610D
:100D9C001E4B9B6903F008037B607B6800222021BB
:100DAC001B4800F04CFC00227F211A4800F047FC45
:100DBC004FF460433B6100237B610123BB6107F16E
:100DCC0010031946144800F0A9FA20233B610123B3
:100DDC007B610023BB610223FB6107F11003194601
:100DEC000B4800F09BFA7F233B6101237B610023BE
:100DFC00BB610223FB6107F110031946054800F0A3
:100E0C008DFA00BF2037BD4680BD00BF00100240E8
:100E1C0000080140000C01400010014080B582B078
:100E2C0000AF786000F024F8FFF7E2F900BF083754
:100E3C00BD4680BD80B400AF72B600BFFEE70000B7
:100E4C0080B483B000AF7860396007493B687A683A
:100E5C0041F82320054A3B68002142F8231000BFCB
:100E6C000C37BD4680BC704770000020B8000020D5
:100E7C0080B483B000AF00237B601CE0134A7B6816
:100E8C0052F82330002B13DD104A7B6852F82330C4
:100E9C005A1E0E497B6841F823200C4A7B6852F895
:100EAC002330002B04DC0A4A7B68012142F8231012
:100EBC007B6801337B6012227B689342DEDB00BFD0
:100ECC0000BF0C37BD4680BC704700BF70000020CF
:100EDC00B800002080B485B000AF154B9B69144A54
:100EEC0043F001039361124B9B6903F00103BB6058
:100EFC00BB680F4BDB690E4A43F08053D3610C4B3C
:100F0C00DB6903F080537B607B680A4B5B68FB609A
:100F1C00FB6823F0E063FB60FB6843F08063FB60DD
:100F2C00044AFB68536000BF1437BD4680BC704751
:100F3C00001002400000014080B584B000AF786022
:100F4C007B681B68B3F1804F13D10C4BDB690B4AE8
:100F5C0043F00103D361094BDB6903F00103FB6030
:100F6C00FB68002200211C2000F0A1F91C2000F0DD
:100F7C00BAF900BF1037BD4680BD00BF001002405B
:100F8C0080B400AFFEE780B400AFFEE780B400AFE2
:100F9C00FEE780B400AFFEE780B400AFFEE780B49C
:100FAC0000AF00BFBD4680BC704780B400AF00BF2F
:100FBC00BD4680BC704780B400AF00BFBD4680BC4E
:100FCC00704780B500AF00F07FF800BF80BD000017
:100FDC0080B500AF024800F0E7FF00BF80BD00BF46
:100FEC000001002080B400AF00BFBD4680BC70473C
:100FFC000C480D490D4A002302E0D458C450043368
:10100C00C4188C42F9D30A4A0A4C002301E013603D
:10101C000432A242FBD3FFF7E5FF01F00DFBFFF713
:10102C00D9FD70470000002044000020DC26000899
:10103C00440000204C010020FEE7000080B500AF0A
:10104C00084B1B68074A43F010031360032000F0A1
:10105C0023F90F2000F008F8FFF73CFF0023184697
:10106C0080BD00BF0020024080B582B000AF786028
:10107C00124B1A68124B1B7819464FF47A73B3FB58
:10108C00F1F3B2FBF3F3184600F03BF90346002BE7
:10109C0001D001230EE07B680F2B0AD8002279685F
:1010AC004FF0FF3000F003F9064A7B681360002311
:1010BC0000E0012318460837BD4680BD38000020EB
:1010CC00400000203C00002080B400AF054B1B7892
:1010DC001A46054B1B681344034A136000BFBD46F8
:1010EC0080BC7047400000204801002080B400AF55
:1010FC00024B1B681846BD4680BC70474801002057
:10110C0080B485B000AF78607B6803F00703FB60A8
:10111C000C4BDB68BB60BA684FF6FF031340BB6037
:10112C00FB681A02BB68134343F0BF6343F40033FC
:10113C00BB60044ABB68D36000BF1437BD4680BC9B
:10114C00704700BF00ED00E080B400AF044BDB68DB
:10115C001B0A03F007031846BD4680BC704700BF4E
:10116C0000ED00E080B483B000AF0346FB7197F94B
:10117C000730002B0BDBFB7903F01F02064997F9B4
:10118C0007305B09012000FA02F241F8232000BF6E
:10119C000C37BD4680BC704700E100E080B483B0E2
:1011AC0000AF03463960FB7197F90730002B0ADB5F
:1011BC003B68DAB20C4997F907301201D2B20B44F2
:1011CC0083F800230AE03B68DAB20849FB7903F0A4
:1011DC000F03043B1201D2B20B441A7600BF0C373A
:1011EC00BD4680BC704700BF00E100E000ED00E0B0
:1011FC0080B489B000AFF860B9607A60FB6803F026
:10120C000703FB61FB69C3F10703042B28BF04230D
:10121C00BB61FB690433062B02D9FB69033B00E07D
:10122C0000237B614FF0FF32BB6902FA03F3DA4310
:10123C00BB681A407B699A404FF0FF317B6901FA19
:10124C0003F3D9437B680B40134318462437BD4640
:10125C0080BC704780B582B000AF78607B68013B82
:10126C00B3F1807F01D301230FE00A4A7B68013B75
:10127C0053600F214FF0FF30FFF790FF054B00221A
:10128C009A60044B07221A60002318460837BD46A3
:10129C0080BD00BF10E000E080B582B000AF786088
:1012AC007868FFF72DFF00BF0837BD4680BD80B5BD
:1012BC0086B000AF0346B9607A60FB7300237B6194
:1012CC00FFF742FF78617A68B9687869FFF790FF99
:1012DC00024697F90F3011461846FFF75FFF00BF23
:1012EC001837BD4680BD80B582B000AF0346FB7198
:1012FC0097F907301846FFF735FF00BF0837BD4692
:10130C0080BD80B582B000AF78607868FFF7A2FF2F
:10131C00034618460837BD4680BD000080B48BB02C
:10132C0000AF7860396000237B6200233B6248E1A8
:10133C0001227B6A02FA03F3FB613B681B68FA69C2
:10134C001340BB61BA69FB699A4240F037813B6834
:10135C005B68A34A93425ED0A14A934275D8A14AD6
:10136C00934258D09F4A93426FD89F4A934252D08F
:10137C009D4A934269D89D4A93424CD09B4A9342D2
:10138C0063D89B4A934246D0994A93425DD8122B1C
:10139C002AD8122B59D801A252F823F02314000892
:1013AC00FD1300080F14000851140008571400080E
:1013BC005714000857140008571400085714000855
:1013CC005714000857140008571400085714000845
:1013DC005714000857140008571400085714000835
:1013EC000514000819140008824A934213D02CE00B
:1013FC003B68DB683B6229E03B68DB6804333B629B
:10140C0024E03B68DB6808333B621FE03B68DB6829
:10141C000C333B621AE03B689B68002B02D104231F
:10142C003B6213E03B689B68012B05D108233B62B0
:10143C007B68FA691A6109E008233B627B68FA69E8
:10144C005A6103E000233B6200E000BFBB69FF2B45
:10145C0001D87B6801E07B6804337B61BB69FF2B9F
:10146C0002D87B6A9B0002E07B6A083B9B003B61D5
:10147C007B691A680F213B6901FA03F3DB431A40BD
:10148C00396A3B6901FA03F31A437B691A603B68BA
:10149C005B6803F08053002B00F09080564B9B69E7
:1014AC00554A43F001039361534B9B6903F00103CD
:1014BC00BB60BB68514A7B6A9B08023352F82330ED
:1014CC00FB607B6A03F003039B000F2202FA03F319
:1014DC00DB43FA681340FB607B68494A93420DD0AA
:1014EC007B68484A934207D07B68474A934201D1B4
:1014FC00022304E0032302E0012300E000237A6AC4
:10150C0002F0030292009340FA681343FB603B49DC
:10151C007B6A9B080233FA6841F823203B685B68BE
:10152C0003F48033002B06D0384B1A683749BB695B
:10153C0013430B6006E0354B1A68BB69DB43334938
:10154C0013400B603B685B6803F40033002B06D040
:10155C002E4B5A682D49BB6913434B6006E02B4B4D
:10156C005A68BB69DB43294913404B603B685B6895
:10157C0003F48013002B06D0244B9A682349BB69D3
:10158C0013438B6006E0214B9A68BB69DB431F4910
:10159C0013408B603B685B6803F40013002B06D090
:1015AC001A4BDA681949BB691343CB6006E0174B39
:1015BC00DA68BB69DB4315491340CB607B6A0133A6
:1015CC007B623B681A687B6A22FA03F3002B7FF478
:1015DC00AFAE00BF00BF2C37BD4680BC704700BF0C
:1015EC000000321000003110000022100000211009
:1015FC000000121000001110001002400000014009
:10160C0000080140000C01400010014000040140A2
:10161C0080B485B000AF78600B467B807B689A689D
:10162C007B881340002B02D00123FB7301E00023C5
:10163C00FB73FB7B18461437BD4680BC704780B4E7
:10164C0083B000AF78600B467B8013467B707B7851
:10165C00002B03D07A887B681A6103E07B881A041C
:10166C007B681A6100BF0C37BD4680BC704780B4E4
:10167C0085B000AF78600B467B807B68DB68FB60D5
:10168C007A88FB6813401A04FB68D9437B880B40AB
:10169C001A437B681A6100BF1437BD4680BC704783
:1016AC0080B586B000AF78607B68002B01D1012338
:1016BC006CE27B681B6803F00103002B00F0878051
:1016CC00924B5B6803F00C03042B0CD08F4B5B68C4
:1016DC0003F00C03082B12D18C4B5B6803F48033A2
:1016EC00B3F5803F0BD1894B1B6803F40033002BFF
:1016FC006CD07B685B68002B68D1012346E27B6869
:10170C005B68B3F5803F06D1804B1B687F4A43F47E
:10171C00803313602EE07B685B68002B0CD17B4B15
:10172C001B687A4A23F480331360784B1B68774A22
:10173C0023F4802313601DE07B685B68B3F5A02F56
:10174C000CD1724B1B68714A43F4802313606F4BAE
:10175C001B686E4A43F4803313600BE06B4B1B68C1
:10176C006A4A23F480331360684B1B68674A23F47E
:10177C00802313607B685B68002B13D0FFF7B6FCEB
:10178C00386108E0FFF7B2FC02463B69D31A642BC0
:10179C0001D90323FAE15D4B1B6803F40033002BE2
:1017AC00F0D014E0FFF7A2FC386108E0FFF79EFCD4
:1017BC0002463B69D31A642B01D90323E6E1534B50
:1017CC001B6803F40033002BF0D100E000BF7B68F2
:1017DC001B6803F00203002B63D04C4B5B6803F0D7
:1017EC000C03002B0BD0494B5B6803F00C03082B4C
:1017FC001CD1464B5B6803F48033002B16D1434B52
:10180C001B6803F00203002B05D07B681B69012BBE
:10181C0001D00123BAE13D4B1B6823F0F8027B6831
:10182C005B69DB00394913430B603AE07B681B6949
:10183C00002B20D0364B01221A60FFF757FC386181
:10184C0008E0FFF753FC02463B69D31A022B01D97F
:10185C0003239BE12D4B1B6803F00203002BF0D0FC
:10186C002A4B1B6823F0F8027B685B69DB00274975
:10187C0013430B6015E0264B00221A60FFF736FC71
:10188C00386108E0FFF732FC02463B69D31A022BA1
:10189C0001D903237AE11D4B1B6803F00203002BD3
:1018AC00F0D17B681B6803F00803002B3AD07B68EF
:1018BC009B69002B19D0174B01221A60FFF716FCFD
:1018CC00386108E0FFF712FC02463B69D31A022B81
:1018DC0001D903235AE10D4B5B6A03F00203002B81
:1018EC00F0D0012000F0A6FA1CE00A4B00221A608E
:1018FC00FFF7FCFB38610FE0FFF7F8FB02463B6992
:10190C00D31A022B08D9032340E100BF0010024078
:10191C0000004242800442429E4B5B6A03F0020389
:10192C00002BE9D17B681B6803F00403002B00F04B
:10193C00A6800023FB75974BDB6903F08053002BCB
:10194C000DD1944BDB69934A43F08053D361914B97
:10195C00DB6903F08053BB60BB680123FB758E4BC6
:10196C001B6803F48073002B18D18B4B1B688A4ABD
:10197C0043F480731360FFF7B9FB386108E0FFF79D
:10198C00B5FB02463B69D31A642B01D90323FDE056
:10199C00814B1B6803F48073002BF0D07B68DB68F1
:1019AC00012B06D17B4B1B6A7A4A43F0010313626D
:1019BC002DE07B68DB68002B0CD1764B1B6A754ADB
:1019CC0023F001031362734B1B6A724A23F0040366
:1019DC0013621CE07B68DB68052B0CD16D4B1B6A1A
:1019EC006C4A43F0040313626A4B1B6A694A43F066
:1019FC00010313620BE0674B1B6A664A23F0010379
:101A0C001362644B1B6A634A23F0040313627B6802
:101A1C00DB68002B15D0FFF769FB38610AE0FFF794
:101A2C0065FB02463B69D31A41F28832934201D9D5
:101A3C000323ABE0574B1B6A03F00203002BEED0E1
:101A4C0014E0FFF753FB38610AE0FFF74FFB024647
:101A5C003B69D31A41F28832934201D9032395E0B2
:101A6C004C4B1B6A03F00203002BEED1FB7D012BC8
:101A7C0005D1484BDB69474A23F08053D3617B681F
:101A8C00DB69002B00F08180424B5B6803F00C0398
:101A9C00082B61D07B68DB69022B46D13F4B0022BF
:101AAC001A60FFF723FB386108E0FFF71FFB0246C3
:101ABC003B69D31A022B01D9032367E0354B1B6812
:101ACC0003F00073002BF0D17B681B6AB3F5803FE9
:101ADC0008D1304B5B6823F400327B689B682D493E
:101AEC0013434B602B4B5B6823F474127B68196AAD
:101AFC007B685B6A0B43274913434B60274B0122DE
:101B0C001A60FFF7F3FA386108E0FFF7EFFA0246C4
:101B1C003B69D31A022B01D9032337E01D4B1B68F9
:101B2C0003F00073002BF0D02FE01C4B00221A6046
:101B3C00FFF7DCFA386108E0FFF7D8FA02463B6998
:101B4C00D31A022B01D9032320E0124B1B6803F09C
:101B5C000073002BF0D118E07B68DB69012B01D1FD
:101B6C00012313E00B4B5B68FB60FB6803F48032D2
:101B7C007B681B6A9A4206D1FB6803F470127B687F
:101B8C005B6A9A4201D0012300E000231846183703
:101B9C00BD4680BD00100240007000406000424213
:101BAC0080B584B000AF786039607B68002B01D1C0
:101BBC000123D0E06A4B1B6803F007033A689A4292
:101BCC0010D9674B1B6823F0070265493B68134328
:101BDC000B60634B1B6803F007033A689A4201D011
:101BEC000123B8E07B681B6803F00203002B20D0B4
:101BFC007B681B6803F00403002B05D0594B5B6812
:101C0C00584A43F4E06353607B681B6803F0080395
:101C1C00002B05D0534B5B68524A43F4605353601E
:101C2C00504B5B6823F0F0027B689B684D49134373
:101C3C004B607B681B6803F00103002B40D07B6872
:101C4C005B68012B07D1474B1B6803F40033002B57
:101C5C0015D101237FE07B685B68022B07D1414BD8
:101C6C001B6803F00073002B09D1012373E03D4B7B
:101C7C001B6803F00203002B01D101236BE0394BED
:101C8C005B6823F003027B685B68364913434B6047
:101C9C00FFF72CFAF8600AE0FFF728FA0246FB6817
:101CAC00D31A41F28832934201D9032353E02D4BCE
:101CBC005B6803F00C027B685B689B009A42EBD17B
:101CCC00274B1B6803F007033A689A4210D2244B47
:101CDC001B6823F0070222493B6813430B60204B1F
:101CEC001B6803F007033A689A4201D0012332E0E3
:101CFC007B681B6803F00403002B08D0194B5B684E
:101D0C0023F4E0627B68DB68164913434B607B6805
:101D1C001B6803F00803002B09D0124B5B6823F4FB
:101D2C0060527B681B69DB000E4913434B6000F06B
:101D3C0021F802460B4B5B681B0903F00F030A49A1
:101D4C00CB5C22FA03F3094A1360094B1B68184653
:101D5C00FFF78AF9002318461037BD4680BD00BF37
:101D6C000020024000100240C42600083800002069
:101D7C003C00002090B48AB000AF2A4B3C1D0FCB26
:101D8C0084E80F0040F201233B800023FB61002319
:101D9C00BB6100237B6200237B6100233B62224BEF
:101DAC005B68FB61FB6903F00C03042B02D0082B6E
:101DBC0003D02DE01D4B3B622DE0FB699B0C03F027
:101DCC000F0307F12802134413F8243C7B61FB69D1
:101DDC0003F48033002B13D0134B5B685B0C03F0C4
:101DEC00010307F12802134413F8283CBB617B69FB
:101DFC000E4A02FB03F2BB69B2FBF3F37B6204E015
:101E0C007B690B4A02FB03F37B627B6A3B6202E059
:101E1C00064B3B6200BF3B6A18462837BD4690BC58
:101E2C00704700BFB42600080010024000127A0070
:101E3C0000093D0080B485B000AF78600A4B1B6888
:101E4C000A4AA2FB03235B0A7A6802FB03F3FB60DA
:101E5C0000BFFB685A1EFA60002BF9D100BF00BF0F
:101E6C001437BD4680BC704738000020D34D62103B
:101E7C0080B582B000AF78607B68002B01D1012364
:101E8C0041E07B6893F83D30DBB2002B06D17B68D8
:101E9C00002283F83C207868FFF74EF87B6802221A
:101EAC0083F83D207B681A687B680433194610461A
:101EBC0000F06AFA7B68012283F846207B680122D5
:101ECC0083F83E207B68012283F83F207B68012247
:101EDC0083F840207B68012283F841207B68012233
:101EEC0083F842207B68012283F843207B6801221F
:101EFC0083F844207B68012283F845207B6801220B
:101F0C0083F83D20002318460837BD4680BD0000ED
:101F1C0080B485B000AF78607B6893F83D30DBB25D
:101F2C00012B01D0012335E07B68022283F83D2090
:101F3C007B681B68DA687B681B6842F00102DA6018
:101F4C007B681B68164A934209D07B681B68B3F107
:101F5C00804F04D07B681B68124A934211D17B6876
:101F6C001B689B6803F00703FB60FB68062B10D013
:101F7C007B681B681A687B681B6842F001021A6058
:101F8C0007E07B681B681A687B681B6842F00102DB
:101F9C001A60002318461437BD4680BC704700BF3A
:101FAC00002C01400004004080B582B000AF786086
:101FBC007B681B681B6903F00203022B22D17B6830
:101FCC001B68DB6803F00203022B1BD17B681B68C8
:101FDC006FF002021A617B6801221A777B681B681A
:101FEC009B6903F00303002B03D0786800F0B1F970
:101FFC0005E0786800F0A4F9786800F0B3F97B6824
:10200C0000221A777B681B681B6903F00403042BFE
:10201C0022D17B681B68DB6803F00403042B1BD103
:10202C007B681B686FF004021A617B6802221A77C6
:10203C007B681B689B6903F44073002B03D07868A2
:10204C0000F087F905E0786800F07AF9786800F01C
:10205C0089F97B6800221A777B681B681B6903F07F
:10206C000803082B22D17B681B68DB6803F008038C
:10207C00082B1BD17B681B686FF008021A617B6808
:10208C0004221A777B681B68DB6903F00303002BBF
:10209C0003D0786800F05DF905E0786800F050F93D
:1020AC00786800F05FF97B6800221A777B681B6800
:1020BC001B6903F01003102B22D17B681B68DB68B3
:1020CC0003F01003102B1BD17B681B686FF0100200
:1020DC001A617B6808221A777B681B68DB6903F43A
:1020EC004073002B03D0786800F033F905E0786872
:1020FC0000F026F9786800F035F97B6800221A7731
:10210C007B681B681B6903F00103012B0ED17B68F4
:10211C001B68DB6803F00103012B07D17B681B688C
:10212C006FF001021A617868FEF778FE7B681B6815
:10213C001B6903F08003802B0ED17B681B68DB6866
:10214C0003F08003802B07D17B681B686FF0800243
:10215C001A61786800F067FA7B681B681B6903F0EA
:10216C004003402B0ED17B681B68DB6803F04003F7
:10217C00402B07D17B681B686FF040021A617868AE
:10218C0000F0F9F87B681B681B6903F02003202B17
:10219C000ED17B681B68DB6803F02003202B07D172
:1021AC007B681B686FF020021A61786800F032FAC5
:1021BC0000BF0837BD4680BD80B584B000AF7860E5
:1021CC0039607B6893F83C30012B01D10223B3E0DA
:1021DC007B68012283F83C207B68022283F83D2037
:1021EC007B681B689B68FB60FB6823F07703FB60D4
:1021FC00FB6823F47F43FB607B681B68FA689A607A
:10220C003B681B68B3F5005F3ED0B3F5005F00F28E
:10221C008780B3F5805F00F08580B3F5805F7FD851
:10222C00702B1AD0702B7BD8602B50D0602B77D8AA
:10223C00502B3CD0502B73D8402B58D0402B6FD800
:10224C00302B64D0302B6BD8202B60D0202B67D850
:10225C00002B5CD0102B5AD062E07B6818683B686E
:10226C0099683B685A683B68DB6800F05CF97B68EE
:10227C001B689B68FB60FB6843F07703FB607B6823
:10228C001B68FA689A604EE07B6818683B6899682E
:10229C003B685A683B68DB6800F045F97B681B6853
:1022AC009A687B681B6842F480429A603BE07B68CA
:1022BC0018683B6859683B68DB681A4600F0BCF844
:1022CC007B681B685021184600F013F92BE07B68E3
:1022DC0018683B6859683B68DB681A4600F0DAF806
:1022EC007B681B686021184600F003F91BE07B68D3
:1022FC0018683B6859683B68DB681A4600F09CF824
:10230C007B681B684021184600F0F3F80BE07B68F3
:10231C001A683B681B681946104600F0EAF802E0A0
:10232C0000BF00E000BF7B68012283F83D207B6882
:10233C00002283F83C20002318461037BD4680BD90
:10234C0080B483B000AF786000BF0C37BD4680BC52
:10235C00704780B483B000AF786000BF0C37BD46C7
:10236C0080BC704780B483B000AF786000BF0C377E
:10237C00BD4680BC704780B483B000AF786000BFAE
:10238C000C37BD4680BC704780B485B000AF786018
:10239C0039607B681B68FB607B68254A934207D0D9
:1023AC007B68B3F1804F03D07B68224A934208D1FB
:1023BC00FB6823F07003FB603B685B68FA681343AF
:1023CC00FB607B681A4A934207D07B68B3F1804F5D
:1023DC0003D07B68174A934208D1FB6823F44073FF
:1023EC00FB603B68DB68FA681343FB60FB6823F017
:1023FC0080023B685B691343FB607B68FA681A6078
:10240C003B689A687B68DA623B681A687B689A62F8
:10241C007B68074A934203D13B681A697B681A634D
:10242C007B6801225A6100BF1437BD4680BC7047DF
:10243C00002C01400004004080B487B000AFF8606D
:10244C00B9607A60FB681B6A7B61FB681B6A23F0CE
:10245C000102FB681A62FB689B693B613B6923F0D4
:10246C00F0033B617B681B013A6913433B617B6959
:10247C0023F00A037B617A69BB6813437B61FB68B9
:10248C003A699A61FB687A691A6200BF1C37BD46CB
:10249C0080BC704780B487B000AFF860B9607A60D8
:1024AC00FB681B6A23F01002FB681A62FB689B69CD
:1024BC007B61FB681B6A3B617B6923F470437B6126
:1024CC007B681B037A6913437B613B6923F0A00390
:1024DC003B61BB681B013A6913433B61FB687A693A
:1024EC009A61FB683A691A6200BF1C37BD4680BC12
:1024FC00704780B485B000AF786039607B689B68AA
:10250C00FB60FB6823F07003FB603A68FB681343C5
:10251C0043F00703FB607B68FA689A6000BF1437CE
:10252C00BD4680BC704780B487B000AFF860B9601E
:10253C007A603B60FB689B687B617B6923F47F431B
:10254C007B613B681A027B681A43BB6813437A6948
:10255C0013437B61FB687A699A6000BF1C37BD46E8
:10256C0080BC704780B485B000AF786039607B6800
:10257C0093F83C30012B01D1022341E07B6801220E
:10258C0083F83C207B68022283F83D207B681B6823
:10259C005B68FB607B681B689B68BB60FB6823F017
:1025AC007003FB603B681B68FA681343FB607B6835
:1025BC001B68FA685A607B681B68144A934209D0FE
:1025CC007B681B68B3F1804F04D07B681B68104A92
:1025DC0093420CD1BB6823F08003BB603B685B6803
:1025EC00BA681343BB607B681B68BA689A607B68E7
:1025FC00012283F83D207B68002283F83C200023D5
:10260C0018461437BD4680BC704700BF002C0140F3
:10261C000004004080B483B000AF786000BF0C377A
:10262C00BD4680BC704780B483B000AF786000BFFB
:10263C000C37BD4680BC704770B500260C4D0D4C58
:10264C00641BA410A64209D100F022F800260A4D02
:10265C000A4C641BA410A64205D170BD55F8043B6E
:10266C0098470136EEE755F8043B98470136F2E7F8
:10267C00D4260008D4260008D4260008D826000842
:10268C0003460244934200D1704703F8011BF9E75B
:10269C00F8B500BFF8BC08BC9E467047F8B500BF43
:0826AC00F8BC08BC9E46704713
:1026B40002030405060708090A0B0C0D0E0F10107F
:1026C40000000000000000000102030406070809DE
:0426D40031010008C8
:0426D8000D010008E8
:1026DC0001000000010000000100000001000000EA
:1026EC0001000000010000000100000001000000DA
:1026FC0001000000010000000100000001000000CA
:10270C002C010000090000000024F400100000005F
:04271C0001000000B8
:0400000508000FFDE3
:00000001FF
